:040000008A15002835
:10000600293083120313FD00FD0B072800000800AA
:06001600000000000800DC
:10001C00123083120313FC00DA30FD00FD0B1428A0
:08002C00FC0B14280000080081
:0E003400F201F101F001F801F30100300800C3
:1000420083120317BE1B2828031388132A280313BD
:10005200881703173E1B3028031308133228031393
:1000620008170317BE1A3828031388123A280313F5
:10007200881603173E1A4028031308124228031356
:100082000816031736184828031308154A280313BD
:10009200081188150B2088110317BE195328031362
:1000A200881355280313881703173E195B28031377
:1000B20008135D28031308170317BE1863280313D8
:1000C200881265280313881603173E186B2803133A
:1000D20008126D2803130816031736187328031322
:1000E200081575280313081188150B2088110317AA
:0C00F200361C7D280E207E28032008000C
:0800FE00FA1FF21300300800A4
:100106007B15FB1F8D280130F300F201F101F00190
:08011600FA0DF20CFF300800A5
:10011E007B14FB1F9A28F201FA1FFF30F200F10048
:0A012E00F000FA0DF20CFF3008009B
:0E0138008312031738088A0037088200080077
:10014600FB14FB1FAD28FF30F300F200F100F000B6
:08015600FA0DF20CFF30080065
:06015E00FB15FF30080054
:0E016400123083120313FD00FD0BB6280800B5
:100172008312031736103D08BE00212003173614E0
:02018200080073
:10018400A0017208031DD7287108F2007008F1005D
:10019400F001A0157208031DD7287108F200F101BF
:1001A400A011201672080319E5282008F302031D84
:1001B400031CE9280310F21BED28F00DF10DF20DDC
:1001C400F30BDD28E9280130FC001A20F028023066
:0E01D400FC008320F0280430FC007F2008008F
:1001E2000329803083120317B9001629C030B900E1
:1001F20016299430B9001629D430B9001629803056
:10020200B9001629831203173908013A0319F22893
:100212003908023A0319F7283908033A0319FA2868
:100222003908043A0319FD2800293A03F000390875
:10023200F0077008B90036147008BE0021200317B9
:0E02420036103B08BE002120031736140800BA
:100250003A29803083120317B9004D29C030B90004
:100260004D299430B9004D29D430B9004D29803042
:10027000B9004D29831203173908013A03192929B6
:100280003908023A03192E293908033A031931298A
:100290003908043A0319342937293A03F000390898
:1002A000F0077008B9007008BE002120031736104F
:1002B000BC013C083B0784000008031967293C087F
:1002C0003B0784000008BD00B920BC0A5929361438
:0202D000080024
:1002D20083120313FB01FC01FA0173080319A82915
:1002E200F2178E30F302F31B792903197929AB290E
:1002F200F309F30A08307302031C8E29F300F10D8F
:100302007208F100F20108307302031C8E29F10D0C
:10031200F1017308031D0310962973080319962926
:100322000310F20CF10CF30B91297B1B711CA02919
:10033200031CA029F10A0319F20AF21BB729FA1FBA
:10034200BA29F209F109F10A0319F20ABA29F201EA
:10035200F101BA297B14FB1FBD29F201FA1FBD2945
:10036200FF30F200F100FA0DF20CBD290130FC0061
:10037200BF290030FC00BF29FF30FC00FC08031934
:0E038200C3298F207108F0007208F1000800F6
:10039000831203137008F8007108F000F101F201F4
:1003A000F301FB01FC019630F300FA017008F10043
:0C03B0007808F000F801F201C2200800FB
:1003BC0083120313FB01FA01F9018030F800F10CF0
:1003CC00F00C031CF2297408F90775080318750F53
:1003DC00FA070318FB0A0310F01FFA297408FA072E
:1003EC0075080318750FFB07FB0CFA0CF90CF80CCD
:1003FC00031CE5297B08F3007A08F2007908F10068
:06040C007808F000080072
:1004120083120313F801F9011030FC00710DF80D7D
:10042200F90D7408F8027508031C750FF902031818
:10043200212A7408F80775080318750FF9070310C5
:0A044200F00DF10DFC0B0F2A08006D
:10044C00831203137408003A031D412A7508003AFD
:10045C00031D412A7608003A031D412A7708003A09
:10046C00031D412AFF30F000FF30F1007F30F20015
:10047C00FF30F300DC2A8312031377080319D02A08
:10048C0073080319D32A720876068039FA00F2171A
:10049C00F617A0017208F8007108FC007008FD0046
:1004AC007408FD027508031C750FFC027608031C0A
:1004BC00760FF802F801FC01FD01031C6C2A0310F5
:1004CC00F20CF10CF00CF80C0130A0007708F302E0
:1004DC00031C762A7E302007F3070318D62A7B2AC2
:1004EC007E302007F307031CD92A1830FA07FD0DBC
:1004FC00FC0DF80DF00DF10DF20DA00D7408F002CD
:10050C007508031C750FF1027608031C760FF202B6
:10051C00760DA004201C942A7D149F2A7408F007E1
:10052C0075080318750FF10776080318760AF20799
:10053C007D10FA031F307A05031D7D2A7B1B7D1C61
:10054C00C62A0310F00DF10DF20DA00D7408F00287
:10055C007508031C750FF1027608031C760FF20266
:10056C00760D20040139FD070318FC0A0319F80A5B
:10057C00031DC62AF80CFC0CFD0CF30A0319D62A31
:10058C00FA1FF8137808F2007C08F1007D08F000DF
:10059C000030DB2A0130AF20DB2A02301A20DB2AA4
:0E05AC000430A320DB2A083083200000080062
:1005BA0083160313EF012130FD00FD0BE22A83129B
:1005CA000818F52A4230FD00FD0BE92A0000081C34
:1005DA00F12A01308316EF002130FD00FD0BF32ACA
:0205EA00080007
:1005EC00C330831203139F05C0309F0003173908D3
:1005FC00F000F00D7010F00D7010700803139F04D4
:10060C006409F000700883169F059F1783121F144E
:10061C00B2209F149F1C142B0000102B1F101E08BF
:10062C00F100F00183161E08F0040030F1040800FC
:10063C0083120313F301083073020318572B0818A5
:10064C00282B252B1830FD00FD0B2A2B0000000059
:10065C000818422B7308073CF0007008F1000130B9
:10066C00F000710803193E2BF00D7010FF3E382B73
:10067C00F0097008F205552B7308073CF000700860
:10068C00F1000130F00071080319502BF00D7010BF
:10069C00FF3E4A2B7008F204081C552B522BF30A10
:0806AC00212B7208F000080088
:1006B400831603130810831208103B30FC006F30BC
:1006C400FD00FD0B632BFC0B632B000000000814E2
:1006D4001830FD00FD0B6C2B00000000831608147D
:0206E40008000C
:1006E6009C208A110A128000840AB70A0319B80AE4
:0806F600F003031D732B080043
:1006FE008316031388110811081288120813881321
:10070E0083128811081188130813881208120E20FC
:10071E000E200E208816081688150B2088110E2024
:10072E0088150B2088110E2088150B2088110E209D
:10073E00081288150B2088110E2088150B208811A1
:10074E008812881788150B2088110E20881308161A
:10075E0088150B208811081288150B2088110E2081
:10076E0088150B208811081688150B2088110E206D
:10077E00081288150B208811881708178816081676
:0E078E0088150B2088110E2003173614080062
:10090800213084004F3083120313F000CE300317D8
:10091800B7000330B8007323A03084004730831237
:100928000313F0001D300317B7000430B800732319
:10093800103083178400203083120313F0006430D2
:0E0948000317B7000430B800732383130800B0
:101000008A1184248A1583160313061008100930E8
:10101000031788000C308312BE008A1121208A1524
:1010200001300317BE008A1121208A158A117F23FF
:101030008A158A115A238A158A11DD228A15831688
:1010400003136F08013A031D222C8A111E238A15EF
:1010500070080317B2008A111E238A15700803173F
:10106000B5008A111E238A1570080317B4008A116F
:101070001E238A1570080317B3008A111E238A15D0
:1010800070080317B000B10135083207F000F10114
:101090000318F10A3408F0070318F10A3308F007BF
:1010A0000318F10AFF307005F2007108F3000030F8
:1010B000F30531087306031D5F2872083006031D0F
:1010C000222C340883160313EB00EC018312031760
:1010D000320883160313E900EA0103308312031771
:1010E000B9008A11F6228A150A30F4000030F500A2
:1010F0008A1109228A1570088316E7007108E80032
:1011000083120317B9018A11F6228A150A30F400F6
:101110000030F5008A11DE218A158A11C8218A154E
:101120004630F4004630F5000630F6008230F70015
:101130008A1126228A158A1169218A157008831658
:10114000ED007108EE000C3083120317BE008A1107
:1011500021208A1501300317B9000130BA00273069
:10116000BB008A1128218A150230B9000130BA006B
:101170002130BB008A1128218A150130B9000C30BA
:10118000BA000A30F4000030F500831603136B0830
:10119000F0006C08F1008A1109228A150A30F40067
:1011A0000030F5008A1109228A157808F0007908C4
:1011B000F1007008303E0317BB008A11F1208A1538
:1011C0000130B9000D30BA000A30F4000030F500EB
:1011D000831603136B08F0006C08F1008A110922D2
:1011E0008A157808F0007908F1007008303E03177E
:1011F000BB008A11F1208A150230B9000C30BA0008
:101200000A30F4000030F500831603136908F0007B
:101210006A08F1008A1109228A150A30F4000030A8
:10122000F5008A1109228A157808F0007908F10082
:101230007008303E0317BB008A11F1208A15023076
:10124000B9000D30BA000A30F4000030F500831602
:1012500003136908F0006A08F1008A1109228A154F
:101260007808F0007908F1007008303E0317BB00E1
:101270008A11F1208A150D30FB00AF30FC00B6302A
:10128000FD00FD0B4129FC0B4129FB0B412900000E
:101290000C30BE008A1121208A1501300317BE00D0
:1012A0008A1121208A1501300317B9000130BA00D4
:1012B000C030BB008A1128218A150130B9000E30D8
:1012C000BA006430F4000030F50083160313670899
:1012D000F0006808F1008A1109228A150A30F4002A
:1012E0000030F5008A1109228A157808F000790883
:1012F000F1007008303E0317BB008A11F1208A15F7
:101300000130B9000F30BA000A30F4000030F500A7
:10131000831603136708F0006808F1008A11092298
:101320008A150A30F4000030F5008A1109228A1566
:101330007808F0007908F1007008303E0317BB0010
:101340008A11F1208A150130B9001030BA000A3034
:10135000F4000030F500831603136708F0006808F6
:10136000F1008A1109228A157808F0007908F10045
:101370007008303E0317BB008A11F1208A150D302A
:10138000FB00AF30FC00B630FD00FD0BC529FC0BA7
:10139000C529FB0BC52900000C30BE008A11212095
:1013A0008A1501300317BE008A1121208A150130E9
:1013B0000317B9000130BA00B730BB008A112821E9
:1013C0008A150130B9000D30BA00E830F40003305E
:1013D000F500831603136D08F0006E08F1008A1102
:1013E00009228A150A30F4000030F5008A1109221A
:1013F0008A157808F0007908F1007008303E03176C
:10140000BB008A11F1208A150130B9000E30BA00F4
:101410006430F4000030F500831603136D08F0000B
:101420006E08F1008A1109228A150A30F400003092
:10143000F5008A1109228A157808F0007908F10070
:101440007008303E0317BB008A11F1208A15013065
:10145000B9000F30BA000A30F4000030F5008316EE
:1014600003136D08F0006E08F1008A1109228A1535
:101470000A30F4000030F5008A1109228A15780834
:10148000F0007908F1007008303E0317BB008A11A4
:10149000F1208A150130B9001030BA000A30F4008A
:1014A0000030F500831603136D08F0006E08F1009C
:1014B0008A1109228A157808F0007908F10070086D
:1014C000303E0317BB008A11F1208A150D30FB0056
:1014D000AF30FC00B630FD00FD0B6C2AFC0B6C2A13
:1014E000FB0B6C2A00000C30BE008A1121208A15EB
:1014F00001300317BE008A1121208A1583166C085B
:10150000003C031D852A6B08053C0130031C00309C
:10151000F1006A08003C031D8F2A6908143C013061
:10152000031C0030F0007008F1056E08033C031D39
:101530009B2A6D08FC3C013003180030F000710854
:10154000F00503192C2B013083120317B900013069
:10155000BA00AD30BB008A1128218A1500308316ED
:1015600003136802031DB62A1E3067020318C32A3C
:10157000023083120317B9000130BA00CE30BB002D
:101580008A1128218A150030831603136802031D6F
:10159000CB2A1E306702031CE02A00306802031DBC
:1015A000D32A3C3067020318E02A02308312031763
:1015B000B9000130BA002130BB008A1128218A15F8
:1015C0000030831603136802031DE82A3C306702CB
:1015D000031CFD2A00306802031DF02A5030670208
:1015E0000318FD2A023083120317B9000130BA0034
:1015F0001030BB008A1128218A158316031368084E
:10160000003C031D052B6708503C0318122B0230C9
:1016100083120317B9000130BA00DB30BB008A1116
:1016200028218A150D30FB00AF30FC00B630FD00DC
:1016300083120317FD0B182BFC0B182BFB0B182B1D
:1016400000000C30BE008A1121208A1501300317DA
:10165000BE008A1121208A1583166C08003C031DE8
:10166000332B6B080F3C0130031C0030F1006A087B
:10167000003C031D3D2B69082D3C01300318003050
:10168000F0007008F10503306E02031D492BFC3099
:101690006D02013003180030F0007108F0050319E5
:1016A000DA2B013083120317B9000130BA00A030E1
:1016B000BB008A1128218A150030831603136802A3
:1016C000031D642B1E3067020318712B0230831236
:1016D0000317B9000130BA004630BB008A11282137
:1016E0008A15831603136808003C031D792B6708CD
:1016F0001E3C03188E2B6808003C031D812B6708D5
:101700003C3C031C8E2B023083120317B9000130BE
:10171000BA003D30BB008A1128218A1583160313B5
:101720006808003C031D962B67083C3C0318AB2B54
:101730006808003C031D9E2B6708503C031CAB2B24
:10174000023083120317B9000130BA003230BB00F7
:101750008A1128218A15831603136808003C031D8B
:10176000B32B6708503C0318C02B023083120317B9
:10177000B9000130BA005630BB008A1128218A1501
:101780000D30FB00AF30FC00B630FD0083120317B4
:10179000FD0BC62BFC0BC62BFB0BC62B00000C3025
:1017A000BE008A1121208A1501300317BE008A115C
:1017B00021208A1583166C08003C031DE12B6B0861
:1017C0001E3C013003180030F10000306A02031D96
:1017D000EB2B4B3069020130031C0030F000700825
:1017E000F10503306E02031DF72BE8306D02013066
:1017F00003180030F0007108F0050319222C0130A5
:1018000083120317B9000130BA006530BB008A119A
:1018100028218A150D30FB00AF30FC00B630FD00EA
:10182000FD0B102CFC0B102CFB0B102C00000C30B3
:10183000BE008A1121208A1501300317BE008A11CB
:0818400021208A151928232C30
:0C079C004E3465346D343A34203400349F
:1007A80053346934633461346B346C3469346B3476
:0607B8003A342034003445
:1007BE005934413447344934533420344F3452344D
:0607CE00543441340034F4
:1007D40059344134473449345334203441345A343D
:0207E4000034DF
:1007E6005934413447344D34553452342034593415
:1007F600413447344D34493459344F34523400343B
:1008060053344134473441344E3441344B3420342C
:0C08160059344134473449345334003421
:02082200303470
:1008240053344934433441344B3420344834413410
:060834005634413400348B
:10083A005934413447344D345534523420345234C7
:0A084A00493453344B344934003470
:100854004B344134523420345234493453344B34BD
:0408640049340034DF
:1008680042346134733469346E3463343A34203436
:0208780000344A
:10087A0053347534203453346534763469347934D6
:0C088A006534733469343A34203400348F
:100896004B344134523420345934413447344D3486
:0A08A600493459344F345234003401
:1008B00053344134473441344E3441344B34203482
:0808C0004B3441345234003482
:1008C8004F3452345434413420344B34413452344C
:1008D8002034593441344734493459344F3452342C
:0208E8000034DA
:1008EA0041345A3420344B3441345234203459344C
:0E08FA0041344734493459344F3452340034B9
:04400E00F22F000786
:00000001FF
